{
  "_format": "hh-sol-artifact-1",
  "contractName": "Escrow",
  "sourceName": "contracts/Escrow.sol",
  "abi": [
    {
      "anonymous": false,
      "inputs": [
        {
          "indexed": true,
          "internalType": "uint256",
          "name": "id",
          "type": "uint256"
        },
        {
          "indexed": false,
          "internalType": "uint256",
          "name": "amount",
          "type": "uint256"
        }
      ],
      "name": "EscrowDeposited",
      "type": "event"
    },
    {
      "anonymous": false,
      "inputs": [
        {
          "indexed": true,
          "internalType": "uint256",
          "name": "id",
          "type": "uint256"
        }
      ],
      "name": "MilestoneSubmitted",
      "type": "event"
    },
    {
      "anonymous": false,
      "inputs": [
        {
          "indexed": true,
          "internalType": "uint256",
          "name": "id",
          "type": "uint256"
        },
        {
          "indexed": true,
          "internalType": "address",
          "name": "freelancer",
          "type": "address"
        },
        {
          "indexed": false,
          "internalType": "uint256",
          "name": "amount",
          "type": "uint256"
        }
      ],
      "name": "PaymentReleased",
      "type": "event"
    },
    {
      "anonymous": false,
      "inputs": [
        {
          "indexed": true,
          "internalType": "uint256",
          "name": "id",
          "type": "uint256"
        },
        {
          "indexed": true,
          "internalType": "address",
          "name": "client",
          "type": "address"
        },
        {
          "indexed": false,
          "internalType": "string",
          "name": "title",
          "type": "string"
        },
        {
          "indexed": false,
          "internalType": "uint256",
          "name": "amount",
          "type": "uint256"
        }
      ],
      "name": "ProjectCreated",
      "type": "event"
    },
    {
      "anonymous": false,
      "inputs": [
        {
          "indexed": true,
          "internalType": "uint256",
          "name": "id",
          "type": "uint256"
        },
        {
          "indexed": true,
          "internalType": "address",
          "name": "freelancer",
          "type": "address"
        }
      ],
      "name": "TreatySigned",
      "type": "event"
    },
    {
      "inputs": [
        {
          "internalType": "string",
          "name": "_title",
          "type": "string"
        },
        {
          "internalType": "uint256",
          "name": "_amount",
          "type": "uint256"
        },
        {
          "internalType": "uint256",
          "name": "_duration",
          "type": "uint256"
        }
      ],
      "name": "createProject",
      "outputs": [],
      "stateMutability": "nonpayable",
      "type": "function"
    },
    {
      "inputs": [
        {
          "internalType": "uint256",
          "name": "_projectId",
          "type": "uint256"
        }
      ],
      "name": "depositEscrow",
      "outputs": [],
      "stateMutability": "payable",
      "type": "function"
    },
    {
      "inputs": [],
      "name": "projectCount",
      "outputs": [
        {
          "internalType": "uint256",
          "name": "",
          "type": "uint256"
        }
      ],
      "stateMutability": "view",
      "type": "function"
    },
    {
      "inputs": [
        {
          "internalType": "uint256",
          "name": "",
          "type": "uint256"
        }
      ],
      "name": "projects",
      "outputs": [
        {
          "internalType": "uint256",
          "name": "id",
          "type": "uint256"
        },
        {
          "internalType": "address",
          "name": "client",
          "type": "address"
        },
        {
          "internalType": "address",
          "name": "freelancer",
          "type": "address"
        },
        {
          "internalType": "string",
          "name": "title",
          "type": "string"
        },
        {
          "internalType": "uint256",
          "name": "amount",
          "type": "uint256"
        },
        {
          "internalType": "uint256",
          "name": "duration",
          "type": "uint256"
        },
        {
          "internalType": "bool",
          "name": "treatySigned",
          "type": "bool"
        },
        {
          "internalType": "bool",
          "name": "escrowDeposited",
          "type": "bool"
        },
        {
          "internalType": "bool",
          "name": "milestoneSubmitted",
          "type": "bool"
        },
        {
          "internalType": "bool",
          "name": "paymentReleased",
          "type": "bool"
        },
        {
          "internalType": "bool",
          "name": "disputed",
          "type": "bool"
        }
      ],
      "stateMutability": "view",
      "type": "function"
    },
    {
      "inputs": [
        {
          "internalType": "uint256",
          "name": "_projectId",
          "type": "uint256"
        }
      ],
      "name": "releasePayment",
      "outputs": [],
      "stateMutability": "nonpayable",
      "type": "function"
    },
    {
      "inputs": [
        {
          "internalType": "uint256",
          "name": "_projectId",
          "type": "uint256"
        },
        {
          "internalType": "address",
          "name": "_freelancer",
          "type": "address"
        }
      ],
      "name": "signTreaty",
      "outputs": [],
      "stateMutability": "nonpayable",
      "type": "function"
    },
    {
      "inputs": [
        {
          "internalType": "uint256",
          "name": "_projectId",
          "type": "uint256"
        }
      ],
      "name": "submitMilestone",
      "outputs": [],
      "stateMutability": "nonpayable",
      "type": "function"
    }
  ],
  "bytecode": "0x608060405234801561001057600080fd5b50611a1b806100206000396000f3fe6080604052600436106100705760003560e01c80637d64b00b1161004e5780637d64b00b1461011057806388685cd914610139578063cb991efe14610162578063f3a6ac5f1461017e57610070565b8063107046bd1461007557806336fbad26146100bc57806371b01ac3146100e7575b600080fd5b34801561008157600080fd5b5061009c60048036038101906100979190610d4b565b6101a7565b6040516100b39b9a99989796959493929190610e73565b60405180910390f35b3480156100c857600080fd5b506100d161030a565b6040516100de9190610f25565b60405180910390f35b3480156100f357600080fd5b5061010e60048036038101906101099190610f6c565b610310565b005b34801561011c57600080fd5b5061013760048036038101906101329190610d4b565b6104b4565b005b34801561014557600080fd5b50610160600480360381019061015b9190610d4b565b61064e565b005b61017c60048036038101906101779190610d4b565b6108a1565b005b34801561018a57600080fd5b506101a560048036038101906101a091906110e1565b610a8c565b005b60016020528060005260406000206000915090508060000154908060010160009054906101000a900473ffffffffffffffffffffffffffffffffffffffff16908060020160009054906101000a900473ffffffffffffffffffffffffffffffffffffffff169080600301805461021c9061117f565b80601f01602080910402602001604051908101604052809291908181526020018280546102489061117f565b80156102955780601f1061026a57610100808354040283529160200191610295565b820191906000526020600020905b81548152906001019060200180831161027857829003601f168201915b5050505050908060040154908060050154908060060160009054906101000a900460ff16908060060160019054906101000a900460ff16908060060160029054906101000a900460ff16908060060160039054906101000a900460ff16908060060160049054906101000a900460ff1690508b565b60005481565b60006001600084815260200190815260200160002090508060010160009054906101000a900473ffffffffffffffffffffffffffffffffffffffff1673ffffffffffffffffffffffffffffffffffffffff163373ffffffffffffffffffffffffffffffffffffffff16146103b9576040517f08c379a00000000000000000000000000000000000000000000000000000000081526004016103b0906111fc565b60405180910390fd5b8060060160009054906101000a900460ff161561040b576040517f08c379a000000000000000000000000000000000000000000000000000000000815260040161040290611268565b60405180910390fd5b818160020160006101000a81548173ffffffffffffffffffffffffffffffffffffffff021916908373ffffffffffffffffffffffffffffffffffffffff16021790555060018160060160006101000a81548160ff0219169083151502179055508173ffffffffffffffffffffffffffffffffffffffff16837fec9f310d1669c55ad5c74b46ca10b08f332a2cefdf9b8d8a49fbd109c35b49dd60405160405180910390a3505050565b60006001600083815260200190815260200160002090508060020160009054906101000a900473ffffffffffffffffffffffffffffffffffffffff1673ffffffffffffffffffffffffffffffffffffffff163373ffffffffffffffffffffffffffffffffffffffff161461055d576040517f08c379a0000000000000000000000000000000000000000000000000000000008152600401610554906112d4565b60405180910390fd5b8060060160019054906101000a900460ff166105ae576040517f08c379a00000000000000000000000000000000000000000000000000000000081526004016105a590611340565b60405180910390fd5b8060060160029054906101000a900460ff1615610600576040517f08c379a00000000000000000000000000000000000000000000000000000000081526004016105f7906113ac565b60405180910390fd5b60018160060160026101000a81548160ff021916908315150217905550817f6670b87ece4bf5ff8e422301a14d59d43b4f9d17c2f96c6c37ca8a073efda7f560405160405180910390a25050565b60006001600083815260200190815260200160002090508060010160009054906101000a900473ffffffffffffffffffffffffffffffffffffffff1673ffffffffffffffffffffffffffffffffffffffff163373ffffffffffffffffffffffffffffffffffffffff16146106f7576040517f08c379a00000000000000000000000000000000000000000000000000000000081526004016106ee90611418565b60405180910390fd5b8060060160029054906101000a900460ff16610748576040517f08c379a000000000000000000000000000000000000000000000000000000000815260040161073f90611484565b60405180910390fd5b8060060160039054906101000a900460ff161561079a576040517f08c379a0000000000000000000000000000000000000000000000000000000008152600401610791906114f0565b60405180910390fd5b60018160060160036101000a81548160ff0219169083151502179055508060020160009054906101000a900473ffffffffffffffffffffffffffffffffffffffff1673ffffffffffffffffffffffffffffffffffffffff166108fc82600401549081150290604051600060405180830381858888f19350505050158015610825573d6000803e3d6000fd5b508060020160009054906101000a900473ffffffffffffffffffffffffffffffffffffffff1673ffffffffffffffffffffffffffffffffffffffff16827f21d71db5be59bb9fa133895586b7404307dd33fb93b16db09dc6f1d9d7d231b083600401546040516108959190610f25565b60405180910390a35050565b60006001600083815260200190815260200160002090508060010160009054906101000a900473ffffffffffffffffffffffffffffffffffffffff1673ffffffffffffffffffffffffffffffffffffffff163373ffffffffffffffffffffffffffffffffffffffff161461094a576040517f08c379a00000000000000000000000000000000000000000000000000000000081526004016109419061155c565b60405180910390fd5b8060060160009054906101000a900460ff1661099b576040517f08c379a0000000000000000000000000000000000000000000000000000000008152600401610992906115c8565b60405180910390fd5b8060060160019054906101000a900460ff16156109ed576040517f08c379a00000000000000000000000000000000000000000000000000000000081526004016109e490611634565b60405180910390fd5b80600401543414610a33576040517f08c379a0000000000000000000000000000000000000000000000000000000008152600401610a2a906116a0565b60405180910390fd5b60018160060160016101000a81548160ff021916908315150217905550817fd3c221d5b0aba10ecbafdafc16a948672d7d45a8dcb069038786f81a75e0657534604051610a809190610f25565b60405180910390a25050565b600080815480929190610a9e906116ef565b919050555060405180610160016040528060005481526020013373ffffffffffffffffffffffffffffffffffffffff168152602001600073ffffffffffffffffffffffffffffffffffffffff1681526020018481526020018381526020018281526020016000151581526020016000151581526020016000151581526020016000151581526020016000151581525060016000805481526020019081526020016000206000820151816000015560208201518160010160006101000a81548173ffffffffffffffffffffffffffffffffffffffff021916908373ffffffffffffffffffffffffffffffffffffffff16021790555060408201518160020160006101000a81548173ffffffffffffffffffffffffffffffffffffffff021916908373ffffffffffffffffffffffffffffffffffffffff1602179055506060820151816003019081610bee91906118e3565b506080820151816004015560a0820151816005015560c08201518160060160006101000a81548160ff02191690831515021790555060e08201518160060160016101000a81548160ff0219169083151502179055506101008201518160060160026101000a81548160ff0219169083151502179055506101208201518160060160036101000a81548160ff0219169083151502179055506101408201518160060160046101000a81548160ff0219169083151502179055509050503373ffffffffffffffffffffffffffffffffffffffff166000547f51d08cb6cfa640a387210fb69df925dfb70169ae7373f8ecd40b977b0c800d9a8585604051610cf49291906119b5565b60405180910390a3505050565b6000604051905090565b600080fd5b600080fd5b6000819050919050565b610d2881610d15565b8114610d3357600080fd5b50565b600081359050610d4581610d1f565b92915050565b600060208284031215610d6157610d60610d0b565b5b6000610d6f84828501610d36565b91505092915050565b610d8181610d15565b82525050565b600073ffffffffffffffffffffffffffffffffffffffff82169050919050565b6000610db282610d87565b9050919050565b610dc281610da7565b82525050565b600081519050919050565b600082825260208201905092915050565b60005b83811015610e02578082015181840152602081019050610de7565b60008484015250505050565b6000601f19601f8301169050919050565b6000610e2a82610dc8565b610e348185610dd3565b9350610e44818560208601610de4565b610e4d81610e0e565b840191505092915050565b60008115159050919050565b610e6d81610e58565b82525050565b600061016082019050610e89600083018e610d78565b610e96602083018d610db9565b610ea3604083018c610db9565b8181036060830152610eb5818b610e1f565b9050610ec4608083018a610d78565b610ed160a0830189610d78565b610ede60c0830188610e64565b610eeb60e0830187610e64565b610ef9610100830186610e64565b610f07610120830185610e64565b610f15610140830184610e64565b9c9b505050505050505050505050565b6000602082019050610f3a6000830184610d78565b92915050565b610f4981610da7565b8114610f5457600080fd5b50565b600081359050610f6681610f40565b92915050565b60008060408385031215610f8357610f82610d0b565b5b6000610f9185828601610d36565b9250506020610fa285828601610f57565b9150509250929050565b600080fd5b600080fd5b7f4e487b7100000000000000000000000000000000000000000000000000000000600052604160045260246000fd5b610fee82610e0e565b810181811067ffffffffffffffff8211171561100d5761100c610fb6565b5b80604052505050565b6000611020610d01565b905061102c8282610fe5565b919050565b600067ffffffffffffffff82111561104c5761104b610fb6565b5b61105582610e0e565b9050602081019050919050565b82818337600083830152505050565b600061108461107f84611031565b611016565b9050828152602081018484840111156110a05761109f610fb1565b5b6110ab848285611062565b509392505050565b600082601f8301126110c8576110c7610fac565b5b81356110d8848260208601611071565b91505092915050565b6000806000606084860312156110fa576110f9610d0b565b5b600084013567ffffffffffffffff81111561111857611117610d10565b5b611124868287016110b3565b935050602061113586828701610d36565b925050604061114686828701610d36565b9150509250925092565b7f4e487b7100000000000000000000000000000000000000000000000000000000600052602260045260246000fd5b6000600282049050600182168061119757607f821691505b6020821081036111aa576111a9611150565b5b50919050565b7f4f6e6c7920636c69656e742063616e20696e6974696174652074726561747900600082015250565b60006111e6601f83610dd3565b91506111f1826111b0565b602082019050919050565b60006020820190508181036000830152611215816111d9565b9050919050565b7f54726561747920616c7265616479207369676e65640000000000000000000000600082015250565b6000611252601583610dd3565b915061125d8261121c565b602082019050919050565b6000602082019050818103600083015261128181611245565b9050919050565b7f4f6e6c7920667265656c616e6365722063616e207375626d6974000000000000600082015250565b60006112be601a83610dd3565b91506112c982611288565b602082019050919050565b600060208201905081810360008301526112ed816112b1565b9050919050565b7f457363726f77206e6f74206465706f7369746564000000000000000000000000600082015250565b600061132a601483610dd3565b9150611335826112f4565b602082019050919050565b600060208201905081810360008301526113598161131d565b9050919050565b7f4d696c6573746f6e6520616c7265616479207375626d69747465640000000000600082015250565b6000611396601b83610dd3565b91506113a182611360565b602082019050919050565b600060208201905081810360008301526113c581611389565b9050919050565b7f4f6e6c7920636c69656e742063616e2072656c65617365000000000000000000600082015250565b6000611402601783610dd3565b915061140d826113cc565b602082019050919050565b60006020820190508181036000830152611431816113f5565b9050919050565b7f4d696c6573746f6e65206e6f74207375626d6974746564000000000000000000600082015250565b600061146e601783610dd3565b915061147982611438565b602082019050919050565b6000602082019050818103600083015261149d81611461565b9050919050565b7f5061796d656e7420616c72656164792072656c65617365640000000000000000600082015250565b60006114da601883610dd3565b91506114e5826114a4565b602082019050919050565b60006020820190508181036000830152611509816114cd565b9050919050565b7f4f6e6c7920636c69656e742063616e206465706f736974000000000000000000600082015250565b6000611546601783610dd3565b915061155182611510565b602082019050919050565b6000602082019050818103600083015261157581611539565b9050919050565b7f547265617479206d757374206265207369676e65642066697273740000000000600082015250565b60006115b2601b83610dd3565b91506115bd8261157c565b602082019050919050565b600060208201905081810360008301526115e1816115a5565b9050919050565b7f457363726f7720616c7265616479206465706f73697465640000000000000000600082015250565b600061161e601883610dd3565b9150611629826115e8565b602082019050919050565b6000602082019050818103600083015261164d81611611565b9050919050565b7f496e636f7272656374206465706f73697420616d6f756e740000000000000000600082015250565b600061168a601883610dd3565b915061169582611654565b602082019050919050565b600060208201905081810360008301526116b98161167d565b9050919050565b7f4e487b7100000000000000000000000000000000000000000000000000000000600052601160045260246000fd5b60006116fa82610d15565b91507fffffffffffffffffffffffffffffffffffffffffffffffffffffffffffffffff820361172c5761172b6116c0565b5b600182019050919050565b60008190508160005260206000209050919050565b60006020601f8301049050919050565b600082821b905092915050565b6000600883026117997fffffffffffffffffffffffffffffffffffffffffffffffffffffffffffffffff8261175c565b6117a3868361175c565b95508019841693508086168417925050509392505050565b6000819050919050565b60006117e06117db6117d684610d15565b6117bb565b610d15565b9050919050565b6000819050919050565b6117fa836117c5565b61180e611806826117e7565b848454611769565b825550505050565b600090565b611823611816565b61182e8184846117f1565b505050565b5b818110156118525761184760008261181b565b600181019050611834565b5050565b601f8211156118975761186881611737565b6118718461174c565b81016020851015611880578190505b61189461188c8561174c565b830182611833565b50505b505050565b600082821c905092915050565b60006118ba6000198460080261189c565b1980831691505092915050565b60006118d383836118a9565b9150826002028217905092915050565b6118ec82610dc8565b67ffffffffffffffff81111561190557611904610fb6565b5b61190f825461117f565b61191a828285611856565b600060209050601f83116001811461194d576000841561193b578287015190505b61194585826118c7565b8655506119ad565b601f19841661195b86611737565b60005b828110156119835784890151825560018201915060208501945060208101905061195e565b868310156119a0578489015161199c601f8916826118a9565b8355505b6001600288020188555050505b505050505050565b600060408201905081810360008301526119cf8185610e1f565b90506119de6020830184610d78565b939250505056fea264697066735822122077eebd9513005a9b97f7d5e628c886b084de25138dbfad84dc38201437ebc6d364736f6c63430008180033",
  "linkReferences": {},
  "deployedLinkReferences": {}
}