{"contracts/Escrow.sol":{"Escrow":{"abi":[{"anonymous":false,"inputs":[{"indexed":true,"internalType":"uint256","name":"id","type":"uint256"},{"indexed":false,"internalType":"uint256","name":"amount","type":"uint256"}],"name":"EscrowDeposited","type":"event"},{"anonymous":false,"inputs":[{"indexed":true,"internalType":"uint256","name":"id","type":"uint256"}],"name":"MilestoneSubmitted","type":"event"},{"anonymous":false,"inputs":[{"indexed":true,"internalType":"uint256","name":"id","type":"uint256"},{"indexed":true,"internalType":"address","name":"freelancer","type":"address"},{"indexed":false,"internalType":"uint256","name":"amount","type":"uint256"}],"name":"PaymentReleased","type":"event"},{"anonymous":false,"inputs":[{"indexed":true,"internalType":"uint256","name":"id","type":"uint256"},{"indexed":true,"internalType":"address","name":"client","type":"address"},{"indexed":false,"internalType":"string","name":"title","type":"string"},{"indexed":false,"internalType":"uint256","name":"amount","type":"uint256"}],"name":"ProjectCreated","type":"event"},{"anonymous":false,"inputs":[{"indexed":true,"internalType":"uint256","name":"id","type":"uint256"},{"indexed":true,"internalType":"address","name":"freelancer","type":"address"}],"name":"TreatySigned","type":"event"},{"inputs":[{"internalType":"string","name":"_title","type":"string"},{"internalType":"uint256","name":"_amount","type":"uint256"},{"internalType":"uint256","name":"_duration","type":"uint256"}],"name":"createProject","outputs":[],"stateMutability":"nonpayable","type":"function"},{"inputs":[{"internalType":"uint256","name":"_projectId","type":"uint256"}],"name":"depositEscrow","outputs":[],"stateMutability":"payable","type":"function"},{"inputs":[],"name":"projectCount","outputs":[{"internalType":"uint256","name":"","type":"uint256"}],"stateMutability":"view","type":"function"},{"inputs":[{"internalType":"uint256","name":"","type":"uint256"}],"name":"projects","outputs":[{"internalType":"uint256","name":"id","type":"uint256"},{"internalType":"address","name":"client","type":"address"},{"internalType":"address","name":"freelancer","type":"address"},{"internalType":"string","name":"title","type":"string"},{"internalType":"uint256","name":"amount","type":"uint256"},{"internalType":"uint256","name":"duration","type":"uint256"},{"internalType":"bool","name":"treatySigned","type":"bool"},{"internalType":"bool","name":"escrowDeposited","type":"bool"},{"internalType":"bool","name":"milestoneSubmitted","type":"bool"},{"internalType":"bool","name":"paymentReleased","type":"bool"},{"internalType":"bool","name":"disputed","type":"bool"}],"stateMutability":"view","type":"function"},{"inputs":[{"internalType":"uint256","name":"_projectId","type":"uint256"}],"name":"releasePayment","outputs":[],"stateMutability":"nonpayable","type":"function"},{"inputs":[{"internalType":"uint256","name":"_projectId","type":"uint256"},{"internalType":"address","name":"_freelancer","type":"address"}],"name":"signTreaty","outputs":[],"stateMutability":"nonpayable","type":"function"},{"inputs":[{"internalType":"uint256","name":"_projectId","type":"uint256"}],"name":"submitMilestone","outputs":[],"stateMutability":"nonpayable","type":"function"}],"evm":{"bytecode":{"linkReferences":{},"object":"608060405234801561001057600080fd5b50611a1b806100206000396000f3fe6080604052600436106100705760003560e01c80637d64b00b1161004e5780637d64b00b1461011057806388685cd914610139578063cb991efe14610162578063f3a6ac5f1461017e57610070565b8063107046bd1461007557806336fbad26146100bc57806371b01ac3146100e7575b600080fd5b34801561008157600080fd5b5061009c60048036038101906100979190610d4b565b6101a7565b6040516100b39b9a99989796959493929190610e73565b60405180910390f35b3480156100c857600080fd5b506100d161030a565b6040516100de9190610f25565b60405180910390f35b3480156100f357600080fd5b5061010e60048036038101906101099190610f6c565b610310565b005b34801561011c57600080fd5b5061013760048036038101906101329190610d4b565b6104b4565b005b34801561014557600080fd5b50610160600480360381019061015b9190610d4b565b61064e565b005b61017c60048036038101906101779190610d4b565b6108a1565b005b34801561018a57600080fd5b506101a560048036038101906101a091906110e1565b610a8c565b005b60016020528060005260406000206000915090508060000154908060010160009054906101000a900473ffffffffffffffffffffffffffffffffffffffff16908060020160009054906101000a900473ffffffffffffffffffffffffffffffffffffffff169080600301805461021c9061117f565b80601f01602080910402602001604051908101604052809291908181526020018280546102489061117f565b80156102955780601f1061026a57610100808354040283529160200191610295565b820191906000526020600020905b81548152906001019060200180831161027857829003601f168201915b5050505050908060040154908060050154908060060160009054906101000a900460ff16908060060160019054906101000a900460ff16908060060160029054906101000a900460ff16908060060160039054906101000a900460ff16908060060160049054906101000a900460ff1690508b565b60005481565b60006001600084815260200190815260200160002090508060010160009054906101000a900473ffffffffffffffffffffffffffffffffffffffff1673ffffffffffffffffffffffffffffffffffffffff163373ffffffffffffffffffffffffffffffffffffffff16146103b9576040517f08c379a00000000000000000000000000000000000000000000000000000000081526004016103b0906111fc565b60405180910390fd5b8060060160009054906101000a900460ff161561040b576040517f08c379a000000000000000000000000000000000000000000000000000000000815260040161040290611268565b60405180910390fd5b818160020160006101000a81548173ffffffffffffffffffffffffffffffffffffffff021916908373ffffffffffffffffffffffffffffffffffffffff16021790555060018160060160006101000a81548160ff0219169083151502179055508173ffffffffffffffffffffffffffffffffffffffff16837fec9f310d1669c55ad5c74b46ca10b08f332a2cefdf9b8d8a49fbd109c35b49dd60405160405180910390a3505050565b60006001600083815260200190815260200160002090508060020160009054906101000a900473ffffffffffffffffffffffffffffffffffffffff1673ffffffffffffffffffffffffffffffffffffffff163373ffffffffffffffffffffffffffffffffffffffff161461055d576040517f08c379a0000000000000000000000000000000000000000000000000000000008152600401610554906112d4565b60405180910390fd5b8060060160019054906101000a900460ff166105ae576040517f08c379a00000000000000000000000000000000000000000000000000000000081526004016105a590611340565b60405180910390fd5b8060060160029054906101000a900460ff1615610600576040517f08c379a00000000000000000000000000000000000000000000000000000000081526004016105f7906113ac565b60405180910390fd5b60018160060160026101000a81548160ff021916908315150217905550817f6670b87ece4bf5ff8e422301a14d59d43b4f9d17c2f96c6c37ca8a073efda7f560405160405180910390a25050565b60006001600083815260200190815260200160002090508060010160009054906101000a900473ffffffffffffffffffffffffffffffffffffffff1673ffffffffffffffffffffffffffffffffffffffff163373ffffffffffffffffffffffffffffffffffffffff16146106f7576040517f08c379a00000000000000000000000000000000000000000000000000000000081526004016106ee90611418565b60405180910390fd5b8060060160029054906101000a900460ff16610748576040517f08c379a000000000000000000000000000000000000000000000000000000000815260040161073f90611484565b60405180910390fd5b8060060160039054906101000a900460ff161561079a576040517f08c379a0000000000000000000000000000000000000000000000000000000008152600401610791906114f0565b60405180910390fd5b60018160060160036101000a81548160ff0219169083151502179055508060020160009054906101000a900473ffffffffffffffffffffffffffffffffffffffff1673ffffffffffffffffffffffffffffffffffffffff166108fc82600401549081150290604051600060405180830381858888f19350505050158015610825573d6000803e3d6000fd5b508060020160009054906101000a900473ffffffffffffffffffffffffffffffffffffffff1673ffffffffffffffffffffffffffffffffffffffff16827f21d71db5be59bb9fa133895586b7404307dd33fb93b16db09dc6f1d9d7d231b083600401546040516108959190610f25565b60405180910390a35050565b60006001600083815260200190815260200160002090508060010160009054906101000a900473ffffffffffffffffffffffffffffffffffffffff1673ffffffffffffffffffffffffffffffffffffffff163373ffffffffffffffffffffffffffffffffffffffff161461094a576040517f08c379a00000000000000000000000000000000000000000000000000000000081526004016109419061155c565b60405180910390fd5b8060060160009054906101000a900460ff1661099b576040517f08c379a0000000000000000000000000000000000000000000000000000000008152600401610992906115c8565b60405180910390fd5b8060060160019054906101000a900460ff16156109ed576040517f08c379a00000000000000000000000000000000000000000000000000000000081526004016109e490611634565b60405180910390fd5b80600401543414610a33576040517f08c379a0000000000000000000000000000000000000000000000000000000008152600401610a2a906116a0565b60405180910390fd5b60018160060160016101000a81548160ff021916908315150217905550817fd3c221d5b0aba10ecbafdafc16a948672d7d45a8dcb069038786f81a75e0657534604051610a809190610f25565b60405180910390a25050565b600080815480929190610a9e906116ef565b919050555060405180610160016040528060005481526020013373ffffffffffffffffffffffffffffffffffffffff168152602001600073ffffffffffffffffffffffffffffffffffffffff1681526020018481526020018381526020018281526020016000151581526020016000151581526020016000151581526020016000151581526020016000151581525060016000805481526020019081526020016000206000820151816000015560208201518160010160006101000a81548173ffffffffffffffffffffffffffffffffffffffff021916908373ffffffffffffffffffffffffffffffffffffffff16021790555060408201518160020160006101000a81548173ffffffffffffffffffffffffffffffffffffffff021916908373ffffffffffffffffffffffffffffffffffffffff1602179055506060820151816003019081610bee91906118e3565b506080820151816004015560a0820151816005015560c08201518160060160006101000a81548160ff02191690831515021790555060e08201518160060160016101000a81548160ff0219169083151502179055506101008201518160060160026101000a81548160ff0219169083151502179055506101208201518160060160036101000a81548160ff0219169083151502179055506101408201518160060160046101000a81548160ff0219169083151502179055509050503373ffffffffffffffffffffffffffffffffffffffff166000547f51d08cb6cfa640a387210fb69df925dfb70169ae7373f8ecd40b977b0c800d9a8585604051610cf49291906119b5565b60405180910390a3505050565b6000604051905090565b600080fd5b600080fd5b6000819050919050565b610d2881610d15565b8114610d3357600080fd5b50565b600081359050610d4581610d1f565b92915050565b600060208284031215610d6157610d60610d0b565b5b6000610d6f84828501610d36565b91505092915050565b610d8181610d15565b82525050565b600073ffffffffffffffffffffffffffffffffffffffff82169050919050565b6000610db282610d87565b9050919050565b610dc281610da7565b82525050565b600081519050919050565b600082825260208201905092915050565b60005b83811015610e02578082015181840152602081019050610de7565b60008484015250505050565b6000601f19601f8301169050919050565b6000610e2a82610dc8565b610e348185610dd3565b9350610e44818560208601610de4565b610e4d81610e0e565b840191505092915050565b60008115159050919050565b610e6d81610e58565b82525050565b600061016082019050610e89600083018e610d78565b610e96602083018d610db9565b610ea3604083018c610db9565b8181036060830152610eb5818b610e1f565b9050610ec4608083018a610d78565b610ed160a0830189610d78565b610ede60c0830188610e64565b610eeb60e0830187610e64565b610ef9610100830186610e64565b610f07610120830185610e64565b610f15610140830184610e64565b9c9b505050505050505050505050565b6000602082019050610f3a6000830184610d78565b92915050565b610f4981610da7565b8114610f5457600080fd5b50565b600081359050610f6681610f40565b92915050565b60008060408385031215610f8357610f82610d0b565b5b6000610f9185828601610d36565b9250506020610fa285828601610f57565b9150509250929050565b600080fd5b600080fd5b7f4e487b7100000000000000000000000000000000000000000000000000000000600052604160045260246000fd5b610fee82610e0e565b810181811067ffffffffffffffff8211171561100d5761100c610fb6565b5b80604052505050565b6000611020610d01565b905061102c8282610fe5565b919050565b600067ffffffffffffffff82111561104c5761104b610fb6565b5b61105582610e0e565b9050602081019050919050565b82818337600083830152505050565b600061108461107f84611031565b611016565b9050828152602081018484840111156110a05761109f610fb1565b5b6110ab848285611062565b509392505050565b600082601f8301126110c8576110c7610fac565b5b81356110d8848260208601611071565b91505092915050565b6000806000606084860312156110fa576110f9610d0b565b5b600084013567ffffffffffffffff81111561111857611117610d10565b5b611124868287016110b3565b935050602061113586828701610d36565b925050604061114686828701610d36565b9150509250925092565b7f4e487b7100000000000000000000000000000000000000000000000000000000600052602260045260246000fd5b6000600282049050600182168061119757607f821691505b6020821081036111aa576111a9611150565b5b50919050565b7f4f6e6c7920636c69656e742063616e20696e6974696174652074726561747900600082015250565b60006111e6601f83610dd3565b91506111f1826111b0565b602082019050919050565b60006020820190508181036000830152611215816111d9565b9050919050565b7f54726561747920616c7265616479207369676e65640000000000000000000000600082015250565b6000611252601583610dd3565b915061125d8261121c565b602082019050919050565b6000602082019050818103600083015261128181611245565b9050919050565b7f4f6e6c7920667265656c616e6365722063616e207375626d6974000000000000600082015250565b60006112be601a83610dd3565b91506112c982611288565b602082019050919050565b600060208201905081810360008301526112ed816112b1565b9050919050565b7f457363726f77206e6f74206465706f7369746564000000000000000000000000600082015250565b600061132a601483610dd3565b9150611335826112f4565b602082019050919050565b600060208201905081810360008301526113598161131d565b9050919050565b7f4d696c6573746f6e6520616c7265616479207375626d69747465640000000000600082015250565b6000611396601b83610dd3565b91506113a182611360565b602082019050919050565b600060208201905081810360008301526113c581611389565b9050919050565b7f4f6e6c7920636c69656e742063616e2072656c65617365000000000000000000600082015250565b6000611402601783610dd3565b915061140d826113cc565b602082019050919050565b60006020820190508181036000830152611431816113f5565b9050919050565b7f4d696c6573746f6e65206e6f74207375626d6974746564000000000000000000600082015250565b600061146e601783610dd3565b915061147982611438565b602082019050919050565b6000602082019050818103600083015261149d81611461565b9050919050565b7f5061796d656e7420616c72656164792072656c65617365640000000000000000600082015250565b60006114da601883610dd3565b91506114e5826114a4565b602082019050919050565b60006020820190508181036000830152611509816114cd565b9050919050565b7f4f6e6c7920636c69656e742063616e206465706f736974000000000000000000600082015250565b6000611546601783610dd3565b915061155182611510565b602082019050919050565b6000602082019050818103600083015261157581611539565b9050919050565b7f547265617479206d757374206265207369676e65642066697273740000000000600082015250565b60006115b2601b83610dd3565b91506115bd8261157c565b602082019050919050565b600060208201905081810360008301526115e1816115a5565b9050919050565b7f457363726f7720616c7265616479206465706f73697465640000000000000000600082015250565b600061161e601883610dd3565b9150611629826115e8565b602082019050919050565b6000602082019050818103600083015261164d81611611565b9050919050565b7f496e636f7272656374206465706f73697420616d6f756e740000000000000000600082015250565b600061168a601883610dd3565b915061169582611654565b602082019050919050565b600060208201905081810360008301526116b98161167d565b9050919050565b7f4e487b7100000000000000000000000000000000000000000000000000000000600052601160045260246000fd5b60006116fa82610d15565b91507fffffffffffffffffffffffffffffffffffffffffffffffffffffffffffffffff820361172c5761172b6116c0565b5b600182019050919050565b60008190508160005260206000209050919050565b60006020601f8301049050919050565b600082821b905092915050565b6000600883026117997fffffffffffffffffffffffffffffffffffffffffffffffffffffffffffffffff8261175c565b6117a3868361175c565b95508019841693508086168417925050509392505050565b6000819050919050565b60006117e06117db6117d684610d15565b6117bb565b610d15565b9050919050565b6000819050919050565b6117fa836117c5565b61180e611806826117e7565b848454611769565b825550505050565b600090565b611823611816565b61182e8184846117f1565b505050565b5b818110156118525761184760008261181b565b600181019050611834565b5050565b601f8211156118975761186881611737565b6118718461174c565b81016020851015611880578190505b61189461188c8561174c565b830182611833565b50505b505050565b600082821c905092915050565b60006118ba6000198460080261189c565b1980831691505092915050565b60006118d383836118a9565b9150826002028217905092915050565b6118ec82610dc8565b67ffffffffffffffff81111561190557611904610fb6565b5b61190f825461117f565b61191a828285611856565b600060209050601f83116001811461194d576000841561193b578287015190505b61194585826118c7565b8655506119ad565b601f19841661195b86611737565b60005b828110156119835784890151825560018201915060208501945060208101905061195e565b868310156119a0578489015161199c601f8916826118a9565b8355505b6001600288020188555050505b505050505050565b600060408201905081810360008301526119cf8185610e1f565b90506119de6020830184610d78565b939250505056fea264697066735822122077eebd9513005a9b97f7d5e628c886b084de25138dbfad84dc38201437ebc6d364736f6c63430008180033","opcodes":"PUSH1 0x80 PUSH1 0x40 MSTORE CALLVALUE DUP1 ISZERO PUSH2 0x10 JUMPI PUSH1 0x0 DUP1 REVERT JUMPDEST POP PUSH2 0x1A1B DUP1 PUSH2 0x20 PUSH1 0x0 CODECOPY PUSH1 0x0 RETURN INVALID PUSH1 0x80 PUSH1 0x40 MSTORE PUSH1 0x4 CALLDATASIZE LT PUSH2 0x70 JUMPI PUSH1 0x0 CALLDATALOAD PUSH1 0xE0 SHR DUP1 PUSH4 0x7D64B00B GT PUSH2 0x4E JUMPI DUP1 PUSH4 0x7D64B00B EQ PUSH2 0x110 JUMPI DUP1 PUSH4 0x88685CD9 EQ PUSH2 0x139 JUMPI DUP1 PUSH4 0xCB991EFE EQ PUSH2 0x162 JUMPI DUP1 PUSH4 0xF3A6AC5F EQ PUSH2 0x17E JUMPI PUSH2 0x70 JUMP JUMPDEST DUP1 PUSH4 0x107046BD EQ PUSH2 0x75 JUMPI DUP1 PUSH4 0x36FBAD26 EQ PUSH2 0xBC JUMPI DUP1 PUSH4 0x71B01AC3 EQ PUSH2 0xE7 JUMPI JUMPDEST PUSH1 0x0 DUP1 REVERT JUMPDEST CALLVALUE DUP1 ISZERO PUSH2 0x81 JUMPI PUSH1 0x0 DUP1 REVERT JUMPDEST POP PUSH2 0x9C PUSH1 0x4 DUP1 CALLDATASIZE SUB DUP2 ADD SWAP1 PUSH2 0x97 SWAP2 SWAP1 PUSH2 0xD4B JUMP JUMPDEST PUSH2 0x1A7 JUMP JUMPDEST PUSH1 0x40 MLOAD PUSH2 0xB3 SWAP12 SWAP11 SWAP10 SWAP9 SWAP8 SWAP7 SWAP6 SWAP5 SWAP4 SWAP3 SWAP2 SWAP1 PUSH2 0xE73 JUMP JUMPDEST PUSH1 0x40 MLOAD DUP1 SWAP2 SUB SWAP1 RETURN JUMPDEST CALLVALUE DUP1 ISZERO PUSH2 0xC8 JUMPI PUSH1 0x0 DUP1 REVERT JUMPDEST POP PUSH2 0xD1 PUSH2 0x30A JUMP JUMPDEST PUSH1 0x40 MLOAD PUSH2 0xDE SWAP2 SWAP1 PUSH2 0xF25 JUMP JUMPDEST PUSH1 0x40 MLOAD DUP1 SWAP2 SUB SWAP1 RETURN JUMPDEST CALLVALUE DUP1 ISZERO PUSH2 0xF3 JUMPI PUSH1 0x0 DUP1 REVERT JUMPDEST POP PUSH2 0x10E PUSH1 0x4 DUP1 CALLDATASIZE SUB DUP2 ADD SWAP1 PUSH2 0x109 SWAP2 SWAP1 PUSH2 0xF6C JUMP JUMPDEST PUSH2 0x310 JUMP JUMPDEST STOP JUMPDEST CALLVALUE DUP1 ISZERO PUSH2 0x11C JUMPI PUSH1 0x0 DUP1 REVERT JUMPDEST POP PUSH2 0x137 PUSH1 0x4 DUP1 CALLDATASIZE SUB DUP2 ADD SWAP1 PUSH2 0x132 SWAP2 SWAP1 PUSH2 0xD4B JUMP JUMPDEST PUSH2 0x4B4 JUMP JUMPDEST STOP JUMPDEST CALLVALUE DUP1 ISZERO PUSH2 0x145 JUMPI PUSH1 0x0 DUP1 REVERT JUMPDEST POP PUSH2 0x160 PUSH1 0x4 DUP1 CALLDATASIZE SUB DUP2 ADD SWAP1 PUSH2 0x15B SWAP2 SWAP1 PUSH2 0xD4B JUMP JUMPDEST PUSH2 0x64E JUMP JUMPDEST STOP JUMPDEST PUSH2 0x17C PUSH1 0x4 DUP1 CALLDATASIZE SUB DUP2 ADD SWAP1 PUSH2 0x177 SWAP2 SWAP1 PUSH2 0xD4B JUMP JUMPDEST PUSH2 0x8A1 JUMP JUMPDEST STOP JUMPDEST CALLVALUE DUP1 ISZERO PUSH2 0x18A JUMPI PUSH1 0x0 DUP1 REVERT JUMPDEST POP PUSH2 0x1A5 PUSH1 0x4 DUP1 CALLDATASIZE SUB DUP2 ADD SWAP1 PUSH2 0x1A0 SWAP2 SWAP1 PUSH2 0x10E1 JUMP JUMPDEST PUSH2 0xA8C JUMP JUMPDEST STOP JUMPDEST PUSH1 0x1 PUSH1 0x20 MSTORE DUP1 PUSH1 0x0 MSTORE PUSH1 0x40 PUSH1 0x0 KECCAK256 PUSH1 0x0 SWAP2 POP SWAP1 POP DUP1 PUSH1 0x0 ADD SLOAD SWAP1 DUP1 PUSH1 0x1 ADD PUSH1 0x0 SWAP1 SLOAD SWAP1 PUSH2 0x100 EXP SWAP1 DIV PUSH20 0xFFFFFFFFFFFFFFFFFFFFFFFFFFFFFFFFFFFFFFFF AND SWAP1 DUP1 PUSH1 0x2 ADD PUSH1 0x0 SWAP1 SLOAD SWAP1 PUSH2 0x100 EXP SWAP1 DIV PUSH20 0xFFFFFFFFFFFFFFFFFFFFFFFFFFFFFFFFFFFFFFFF AND SWAP1 DUP1 PUSH1 0x3 ADD DUP1 SLOAD PUSH2 0x21C SWAP1 PUSH2 0x117F JUMP JUMPDEST DUP1 PUSH1 0x1F ADD PUSH1 0x20 DUP1 SWAP2 DIV MUL PUSH1 0x20 ADD PUSH1 0x40 MLOAD SWAP1 DUP2 ADD PUSH1 0x40 MSTORE DUP1 SWAP3 SWAP2 SWAP1 DUP2 DUP2 MSTORE PUSH1 0x20 ADD DUP3 DUP1 SLOAD PUSH2 0x248 SWAP1 PUSH2 0x117F JUMP JUMPDEST DUP1 ISZERO PUSH2 0x295 JUMPI DUP1 PUSH1 0x1F LT PUSH2 0x26A JUMPI PUSH2 0x100 DUP1 DUP4 SLOAD DIV MUL DUP4 MSTORE SWAP2 PUSH1 0x20 ADD SWAP2 PUSH2 0x295 JUMP JUMPDEST DUP3 ADD SWAP2 SWAP1 PUSH1 0x0 MSTORE PUSH1 0x20 PUSH1 0x0 KECCAK256 SWAP1 JUMPDEST DUP2 SLOAD DUP2 MSTORE SWAP1 PUSH1 0x1 ADD SWAP1 PUSH1 0x20 ADD DUP1 DUP4 GT PUSH2 0x278 JUMPI DUP3 SWAP1 SUB PUSH1 0x1F AND DUP3 ADD SWAP2 JUMPDEST POP POP POP POP POP SWAP1 DUP1 PUSH1 0x4 ADD SLOAD SWAP1 DUP1 PUSH1 0x5 ADD SLOAD SWAP1 DUP1 PUSH1 0x6 ADD PUSH1 0x0 SWAP1 SLOAD SWAP1 PUSH2 0x100 EXP SWAP1 DIV PUSH1 0xFF AND SWAP1 DUP1 PUSH1 0x6 ADD PUSH1 0x1 SWAP1 SLOAD SWAP1 PUSH2 0x100 EXP SWAP1 DIV PUSH1 0xFF AND SWAP1 DUP1 PUSH1 0x6 ADD PUSH1 0x2 SWAP1 SLOAD SWAP1 PUSH2 0x100 EXP SWAP1 DIV PUSH1 0xFF AND SWAP1 DUP1 PUSH1 0x6 ADD PUSH1 0x3 SWAP1 SLOAD SWAP1 PUSH2 0x100 EXP SWAP1 DIV PUSH1 0xFF AND SWAP1 DUP1 PUSH1 0x6 ADD PUSH1 0x4 SWAP1 SLOAD SWAP1 PUSH2 0x100 EXP SWAP1 DIV PUSH1 0xFF AND SWAP1 POP DUP12 JUMP JUMPDEST PUSH1 0x0 SLOAD DUP2 JUMP JUMPDEST PUSH1 0x0 PUSH1 0x1 PUSH1 0x0 DUP5 DUP2 MSTORE PUSH1 0x20 ADD SWAP1 DUP2 MSTORE PUSH1 0x20 ADD PUSH1 0x0 KECCAK256 SWAP1 POP DUP1 PUSH1 0x1 ADD PUSH1 0x0 SWAP1 SLOAD SWAP1 PUSH2 0x100 EXP SWAP1 DIV PUSH20 0xFFFFFFFFFFFFFFFFFFFFFFFFFFFFFFFFFFFFFFFF AND PUSH20 0xFFFFFFFFFFFFFFFFFFFFFFFFFFFFFFFFFFFFFFFF AND CALLER PUSH20 0xFFFFFFFFFFFFFFFFFFFFFFFFFFFFFFFFFFFFFFFF AND EQ PUSH2 0x3B9 JUMPI PUSH1 0x40 MLOAD PUSH32 0x8C379A000000000000000000000000000000000000000000000000000000000 DUP2 MSTORE PUSH1 0x4 ADD PUSH2 0x3B0 SWAP1 PUSH2 0x11FC JUMP JUMPDEST PUSH1 0x40 MLOAD DUP1 SWAP2 SUB SWAP1 REVERT JUMPDEST DUP1 PUSH1 0x6 ADD PUSH1 0x0 SWAP1 SLOAD SWAP1 PUSH2 0x100 EXP SWAP1 DIV PUSH1 0xFF AND ISZERO PUSH2 0x40B JUMPI PUSH1 0x40 MLOAD PUSH32 0x8C379A000000000000000000000000000000000000000000000000000000000 DUP2 MSTORE PUSH1 0x4 ADD PUSH2 0x402 SWAP1 PUSH2 0x1268 JUMP JUMPDEST PUSH1 0x40 MLOAD DUP1 SWAP2 SUB SWAP1 REVERT JUMPDEST DUP2 DUP2 PUSH1 0x2 ADD PUSH1 0x0 PUSH2 0x100 EXP DUP2 SLOAD DUP2 PUSH20 0xFFFFFFFFFFFFFFFFFFFFFFFFFFFFFFFFFFFFFFFF MUL NOT AND SWAP1 DUP4 PUSH20 0xFFFFFFFFFFFFFFFFFFFFFFFFFFFFFFFFFFFFFFFF AND MUL OR SWAP1 SSTORE POP PUSH1 0x1 DUP2 PUSH1 0x6 ADD PUSH1 0x0 PUSH2 0x100 EXP DUP2 SLOAD DUP2 PUSH1 0xFF MUL NOT AND SWAP1 DUP4 ISZERO ISZERO MUL OR SWAP1 SSTORE POP DUP2 PUSH20 0xFFFFFFFFFFFFFFFFFFFFFFFFFFFFFFFFFFFFFFFF AND DUP4 PUSH32 0xEC9F310D1669C55AD5C74B46CA10B08F332A2CEFDF9B8D8A49FBD109C35B49DD PUSH1 0x40 MLOAD PUSH1 0x40 MLOAD DUP1 SWAP2 SUB SWAP1 LOG3 POP POP POP JUMP JUMPDEST PUSH1 0x0 PUSH1 0x1 PUSH1 0x0 DUP4 DUP2 MSTORE PUSH1 0x20 ADD SWAP1 DUP2 MSTORE PUSH1 0x20 ADD PUSH1 0x0 KECCAK256 SWAP1 POP DUP1 PUSH1 0x2 ADD PUSH1 0x0 SWAP1 SLOAD SWAP1 PUSH2 0x100 EXP SWAP1 DIV PUSH20 0xFFFFFFFFFFFFFFFFFFFFFFFFFFFFFFFFFFFFFFFF AND PUSH20 0xFFFFFFFFFFFFFFFFFFFFFFFFFFFFFFFFFFFFFFFF AND CALLER PUSH20 0xFFFFFFFFFFFFFFFFFFFFFFFFFFFFFFFFFFFFFFFF AND EQ PUSH2 0x55D JUMPI PUSH1 0x40 MLOAD PUSH32 0x8C379A000000000000000000000000000000000000000000000000000000000 DUP2 MSTORE PUSH1 0x4 ADD PUSH2 0x554 SWAP1 PUSH2 0x12D4 JUMP JUMPDEST PUSH1 0x40 MLOAD DUP1 SWAP2 SUB SWAP1 REVERT JUMPDEST DUP1 PUSH1 0x6 ADD PUSH1 0x1 SWAP1 SLOAD SWAP1 PUSH2 0x100 EXP SWAP1 DIV PUSH1 0xFF AND PUSH2 0x5AE JUMPI PUSH1 0x40 MLOAD PUSH32 0x8C379A000000000000000000000000000000000000000000000000000000000 DUP2 MSTORE PUSH1 0x4 ADD PUSH2 0x5A5 SWAP1 PUSH2 0x1340 JUMP JUMPDEST PUSH1 0x40 MLOAD DUP1 SWAP2 SUB SWAP1 REVERT JUMPDEST DUP1 PUSH1 0x6 ADD PUSH1 0x2 SWAP1 SLOAD SWAP1 PUSH2 0x100 EXP SWAP1 DIV PUSH1 0xFF AND ISZERO PUSH2 0x600 JUMPI PUSH1 0x40 MLOAD PUSH32 0x8C379A000000000000000000000000000000000000000000000000000000000 DUP2 MSTORE PUSH1 0x4 ADD PUSH2 0x5F7 SWAP1 PUSH2 0x13AC JUMP JUMPDEST PUSH1 0x40 MLOAD DUP1 SWAP2 SUB SWAP1 REVERT JUMPDEST PUSH1 0x1 DUP2 PUSH1 0x6 ADD PUSH1 0x2 PUSH2 0x100 EXP DUP2 SLOAD DUP2 PUSH1 0xFF MUL NOT AND SWAP1 DUP4 ISZERO ISZERO MUL OR SWAP1 SSTORE POP DUP2 PUSH32 0x6670B87ECE4BF5FF8E422301A14D59D43B4F9D17C2F96C6C37CA8A073EFDA7F5 PUSH1 0x40 MLOAD PUSH1 0x40 MLOAD DUP1 SWAP2 SUB SWAP1 LOG2 POP POP JUMP JUMPDEST PUSH1 0x0 PUSH1 0x1 PUSH1 0x0 DUP4 DUP2 MSTORE PUSH1 0x20 ADD SWAP1 DUP2 MSTORE PUSH1 0x20 ADD PUSH1 0x0 KECCAK256 SWAP1 POP DUP1 PUSH1 0x1 ADD PUSH1 0x0 SWAP1 SLOAD SWAP1 PUSH2 0x100 EXP SWAP1 DIV PUSH20 0xFFFFFFFFFFFFFFFFFFFFFFFFFFFFFFFFFFFFFFFF AND PUSH20 0xFFFFFFFFFFFFFFFFFFFFFFFFFFFFFFFFFFFFFFFF AND CALLER PUSH20 0xFFFFFFFFFFFFFFFFFFFFFFFFFFFFFFFFFFFFFFFF AND EQ PUSH2 0x6F7 JUMPI PUSH1 0x40 MLOAD PUSH32 0x8C379A000000000000000000000000000000000000000000000000000000000 DUP2 MSTORE PUSH1 0x4 ADD PUSH2 0x6EE SWAP1 PUSH2 0x1418 JUMP JUMPDEST PUSH1 0x40 MLOAD DUP1 SWAP2 SUB SWAP1 REVERT JUMPDEST DUP1 PUSH1 0x6 ADD PUSH1 0x2 SWAP1 SLOAD SWAP1 PUSH2 0x100 EXP SWAP1 DIV PUSH1 0xFF AND PUSH2 0x748 JUMPI PUSH1 0x40 MLOAD PUSH32 0x8C379A000000000000000000000000000000000000000000000000000000000 DUP2 MSTORE PUSH1 0x4 ADD PUSH2 0x73F SWAP1 PUSH2 0x1484 JUMP JUMPDEST PUSH1 0x40 MLOAD DUP1 SWAP2 SUB SWAP1 REVERT JUMPDEST DUP1 PUSH1 0x6 ADD PUSH1 0x3 SWAP1 SLOAD SWAP1 PUSH2 0x100 EXP SWAP1 DIV PUSH1 0xFF AND ISZERO PUSH2 0x79A JUMPI PUSH1 0x40 MLOAD PUSH32 0x8C379A000000000000000000000000000000000000000000000000000000000 DUP2 MSTORE PUSH1 0x4 ADD PUSH2 0x791 SWAP1 PUSH2 0x14F0 JUMP JUMPDEST PUSH1 0x40 MLOAD DUP1 SWAP2 SUB SWAP1 REVERT JUMPDEST PUSH1 0x1 DUP2 PUSH1 0x6 ADD PUSH1 0x3 PUSH2 0x100 EXP DUP2 SLOAD DUP2 PUSH1 0xFF MUL NOT AND SWAP1 DUP4 ISZERO ISZERO MUL OR SWAP1 SSTORE POP DUP1 PUSH1 0x2 ADD PUSH1 0x0 SWAP1 SLOAD SWAP1 PUSH2 0x100 EXP SWAP1 DIV PUSH20 0xFFFFFFFFFFFFFFFFFFFFFFFFFFFFFFFFFFFFFFFF AND PUSH20 0xFFFFFFFFFFFFFFFFFFFFFFFFFFFFFFFFFFFFFFFF AND PUSH2 0x8FC DUP3 PUSH1 0x4 ADD SLOAD SWAP1 DUP2 ISZERO MUL SWAP1 PUSH1 0x40 MLOAD PUSH1 0x0 PUSH1 0x40 MLOAD DUP1 DUP4 SUB DUP2 DUP6 DUP9 DUP9 CALL SWAP4 POP POP POP POP ISZERO DUP1 ISZERO PUSH2 0x825 JUMPI RETURNDATASIZE PUSH1 0x0 DUP1 RETURNDATACOPY RETURNDATASIZE PUSH1 0x0 REVERT JUMPDEST POP DUP1 PUSH1 0x2 ADD PUSH1 0x0 SWAP1 SLOAD SWAP1 PUSH2 0x100 EXP SWAP1 DIV PUSH20 0xFFFFFFFFFFFFFFFFFFFFFFFFFFFFFFFFFFFFFFFF AND PUSH20 0xFFFFFFFFFFFFFFFFFFFFFFFFFFFFFFFFFFFFFFFF AND DUP3 PUSH32 0x21D71DB5BE59BB9FA133895586B7404307DD33FB93B16DB09DC6F1D9D7D231B0 DUP4 PUSH1 0x4 ADD SLOAD PUSH1 0x40 MLOAD PUSH2 0x895 SWAP2 SWAP1 PUSH2 0xF25 JUMP JUMPDEST PUSH1 0x40 MLOAD DUP1 SWAP2 SUB SWAP1 LOG3 POP POP JUMP JUMPDEST PUSH1 0x0 PUSH1 0x1 PUSH1 0x0 DUP4 DUP2 MSTORE PUSH1 0x20 ADD SWAP1 DUP2 MSTORE PUSH1 0x20 ADD PUSH1 0x0 KECCAK256 SWAP1 POP DUP1 PUSH1 0x1 ADD PUSH1 0x0 SWAP1 SLOAD SWAP1 PUSH2 0x100 EXP SWAP1 DIV PUSH20 0xFFFFFFFFFFFFFFFFFFFFFFFFFFFFFFFFFFFFFFFF AND PUSH20 0xFFFFFFFFFFFFFFFFFFFFFFFFFFFFFFFFFFFFFFFF AND CALLER PUSH20 0xFFFFFFFFFFFFFFFFFFFFFFFFFFFFFFFFFFFFFFFF AND EQ PUSH2 0x94A JUMPI PUSH1 0x40 MLOAD PUSH32 0x8C379A000000000000000000000000000000000000000000000000000000000 DUP2 MSTORE PUSH1 0x4 ADD PUSH2 0x941 SWAP1 PUSH2 0x155C JUMP JUMPDEST PUSH1 0x40 MLOAD DUP1 SWAP2 SUB SWAP1 REVERT JUMPDEST DUP1 PUSH1 0x6 ADD PUSH1 0x0 SWAP1 SLOAD SWAP1 PUSH2 0x100 EXP SWAP1 DIV PUSH1 0xFF AND PUSH2 0x99B JUMPI PUSH1 0x40 MLOAD PUSH32 0x8C379A000000000000000000000000000000000000000000000000000000000 DUP2 MSTORE PUSH1 0x4 ADD PUSH2 0x992 SWAP1 PUSH2 0x15C8 JUMP JUMPDEST PUSH1 0x40 MLOAD DUP1 SWAP2 SUB SWAP1 REVERT JUMPDEST DUP1 PUSH1 0x6 ADD PUSH1 0x1 SWAP1 SLOAD SWAP1 PUSH2 0x100 EXP SWAP1 DIV PUSH1 0xFF AND ISZERO PUSH2 0x9ED JUMPI PUSH1 0x40 MLOAD PUSH32 0x8C379A000000000000000000000000000000000000000000000000000000000 DUP2 MSTORE PUSH1 0x4 ADD PUSH2 0x9E4 SWAP1 PUSH2 0x1634 JUMP JUMPDEST PUSH1 0x40 MLOAD DUP1 SWAP2 SUB SWAP1 REVERT JUMPDEST DUP1 PUSH1 0x4 ADD SLOAD CALLVALUE EQ PUSH2 0xA33 JUMPI PUSH1 0x40 MLOAD PUSH32 0x8C379A000000000000000000000000000000000000000000000000000000000 DUP2 MSTORE PUSH1 0x4 ADD PUSH2 0xA2A SWAP1 PUSH2 0x16A0 JUMP JUMPDEST PUSH1 0x40 MLOAD DUP1 SWAP2 SUB SWAP1 REVERT JUMPDEST PUSH1 0x1 DUP2 PUSH1 0x6 ADD PUSH1 0x1 PUSH2 0x100 EXP DUP2 SLOAD DUP2 PUSH1 0xFF MUL NOT AND SWAP1 DUP4 ISZERO ISZERO MUL OR SWAP1 SSTORE POP DUP2 PUSH32 0xD3C221D5B0ABA10ECBAFDAFC16A948672D7D45A8DCB069038786F81A75E06575 CALLVALUE PUSH1 0x40 MLOAD PUSH2 0xA80 SWAP2 SWAP1 PUSH2 0xF25 JUMP JUMPDEST PUSH1 0x40 MLOAD DUP1 SWAP2 SUB SWAP1 LOG2 POP POP JUMP JUMPDEST PUSH1 0x0 DUP1 DUP2 SLOAD DUP1 SWAP3 SWAP2 SWAP1 PUSH2 0xA9E SWAP1 PUSH2 0x16EF JUMP JUMPDEST SWAP2 SWAP1 POP SSTORE POP PUSH1 0x40 MLOAD DUP1 PUSH2 0x160 ADD PUSH1 0x40 MSTORE DUP1 PUSH1 0x0 SLOAD DUP2 MSTORE PUSH1 0x20 ADD CALLER PUSH20 0xFFFFFFFFFFFFFFFFFFFFFFFFFFFFFFFFFFFFFFFF AND DUP2 MSTORE PUSH1 0x20 ADD PUSH1 0x0 PUSH20 0xFFFFFFFFFFFFFFFFFFFFFFFFFFFFFFFFFFFFFFFF AND DUP2 MSTORE PUSH1 0x20 ADD DUP5 DUP2 MSTORE PUSH1 0x20 ADD DUP4 DUP2 MSTORE PUSH1 0x20 ADD DUP3 DUP2 MSTORE PUSH1 0x20 ADD PUSH1 0x0 ISZERO ISZERO DUP2 MSTORE PUSH1 0x20 ADD PUSH1 0x0 ISZERO ISZERO DUP2 MSTORE PUSH1 0x20 ADD PUSH1 0x0 ISZERO ISZERO DUP2 MSTORE PUSH1 0x20 ADD PUSH1 0x0 ISZERO ISZERO DUP2 MSTORE PUSH1 0x20 ADD PUSH1 0x0 ISZERO ISZERO DUP2 MSTORE POP PUSH1 0x1 PUSH1 0x0 DUP1 SLOAD DUP2 MSTORE PUSH1 0x20 ADD SWAP1 DUP2 MSTORE PUSH1 0x20 ADD PUSH1 0x0 KECCAK256 PUSH1 0x0 DUP3 ADD MLOAD DUP2 PUSH1 0x0 ADD SSTORE PUSH1 0x20 DUP3 ADD MLOAD DUP2 PUSH1 0x1 ADD PUSH1 0x0 PUSH2 0x100 EXP DUP2 SLOAD DUP2 PUSH20 0xFFFFFFFFFFFFFFFFFFFFFFFFFFFFFFFFFFFFFFFF MUL NOT AND SWAP1 DUP4 PUSH20 0xFFFFFFFFFFFFFFFFFFFFFFFFFFFFFFFFFFFFFFFF AND MUL OR SWAP1 SSTORE POP PUSH1 0x40 DUP3 ADD MLOAD DUP2 PUSH1 0x2 ADD PUSH1 0x0 PUSH2 0x100 EXP DUP2 SLOAD DUP2 PUSH20 0xFFFFFFFFFFFFFFFFFFFFFFFFFFFFFFFFFFFFFFFF MUL NOT AND SWAP1 DUP4 PUSH20 0xFFFFFFFFFFFFFFFFFFFFFFFFFFFFFFFFFFFFFFFF AND MUL OR SWAP1 SSTORE POP PUSH1 0x60 DUP3 ADD MLOAD DUP2 PUSH1 0x3 ADD SWAP1 DUP2 PUSH2 0xBEE SWAP2 SWAP1 PUSH2 0x18E3 JUMP JUMPDEST POP PUSH1 0x80 DUP3 ADD MLOAD DUP2 PUSH1 0x4 ADD SSTORE PUSH1 0xA0 DUP3 ADD MLOAD DUP2 PUSH1 0x5 ADD SSTORE PUSH1 0xC0 DUP3 ADD MLOAD DUP2 PUSH1 0x6 ADD PUSH1 0x0 PUSH2 0x100 EXP DUP2 SLOAD DUP2 PUSH1 0xFF MUL NOT AND SWAP1 DUP4 ISZERO ISZERO MUL OR SWAP1 SSTORE POP PUSH1 0xE0 DUP3 ADD MLOAD DUP2 PUSH1 0x6 ADD PUSH1 0x1 PUSH2 0x100 EXP DUP2 SLOAD DUP2 PUSH1 0xFF MUL NOT AND SWAP1 DUP4 ISZERO ISZERO MUL OR SWAP1 SSTORE POP PUSH2 0x100 DUP3 ADD MLOAD DUP2 PUSH1 0x6 ADD PUSH1 0x2 PUSH2 0x100 EXP DUP2 SLOAD DUP2 PUSH1 0xFF MUL NOT AND SWAP1 DUP4 ISZERO ISZERO MUL OR SWAP1 SSTORE POP PUSH2 0x120 DUP3 ADD MLOAD DUP2 PUSH1 0x6 ADD PUSH1 0x3 PUSH2 0x100 EXP DUP2 SLOAD DUP2 PUSH1 0xFF MUL NOT AND SWAP1 DUP4 ISZERO ISZERO MUL OR SWAP1 SSTORE POP PUSH2 0x140 DUP3 ADD MLOAD DUP2 PUSH1 0x6 ADD PUSH1 0x4 PUSH2 0x100 EXP DUP2 SLOAD DUP2 PUSH1 0xFF MUL NOT AND SWAP1 DUP4 ISZERO ISZERO MUL OR SWAP1 SSTORE POP SWAP1 POP POP CALLER PUSH20 0xFFFFFFFFFFFFFFFFFFFFFFFFFFFFFFFFFFFFFFFF AND PUSH1 0x0 SLOAD PUSH32 0x51D08CB6CFA640A387210FB69DF925DFB70169AE7373F8ECD40B977B0C800D9A DUP6 DUP6 PUSH1 0x40 MLOAD PUSH2 0xCF4 SWAP3 SWAP2 SWAP1 PUSH2 0x19B5 JUMP JUMPDEST PUSH1 0x40 MLOAD DUP1 SWAP2 SUB SWAP1 LOG3 POP POP POP JUMP JUMPDEST PUSH1 0x0 PUSH1 0x40 MLOAD SWAP1 POP SWAP1 JUMP JUMPDEST PUSH1 0x0 DUP1 REVERT JUMPDEST PUSH1 0x0 DUP1 REVERT JUMPDEST PUSH1 0x0 DUP2 SWAP1 POP SWAP2 SWAP1 POP JUMP JUMPDEST PUSH2 0xD28 DUP2 PUSH2 0xD15 JUMP JUMPDEST DUP2 EQ PUSH2 0xD33 JUMPI PUSH1 0x0 DUP1 REVERT JUMPDEST POP JUMP JUMPDEST PUSH1 0x0 DUP2 CALLDATALOAD SWAP1 POP PUSH2 0xD45 DUP2 PUSH2 0xD1F JUMP JUMPDEST SWAP3 SWAP2 POP POP JUMP JUMPDEST PUSH1 0x0 PUSH1 0x20 DUP3 DUP5 SUB SLT ISZERO PUSH2 0xD61 JUMPI PUSH2 0xD60 PUSH2 0xD0B JUMP JUMPDEST JUMPDEST PUSH1 0x0 PUSH2 0xD6F DUP5 DUP3 DUP6 ADD PUSH2 0xD36 JUMP JUMPDEST SWAP2 POP POP SWAP3 SWAP2 POP POP JUMP JUMPDEST PUSH2 0xD81 DUP2 PUSH2 0xD15 JUMP JUMPDEST DUP3 MSTORE POP POP JUMP JUMPDEST PUSH1 0x0 PUSH20 0xFFFFFFFFFFFFFFFFFFFFFFFFFFFFFFFFFFFFFFFF DUP3 AND SWAP1 POP SWAP2 SWAP1 POP JUMP JUMPDEST PUSH1 0x0 PUSH2 0xDB2 DUP3 PUSH2 0xD87 JUMP JUMPDEST SWAP1 POP SWAP2 SWAP1 POP JUMP JUMPDEST PUSH2 0xDC2 DUP2 PUSH2 0xDA7 JUMP JUMPDEST DUP3 MSTORE POP POP JUMP JUMPDEST PUSH1 0x0 DUP2 MLOAD SWAP1 POP SWAP2 SWAP1 POP JUMP JUMPDEST PUSH1 0x0 DUP3 DUP3 MSTORE PUSH1 0x20 DUP3 ADD SWAP1 POP SWAP3 SWAP2 POP POP JUMP JUMPDEST PUSH1 0x0 JUMPDEST DUP4 DUP2 LT ISZERO PUSH2 0xE02 JUMPI DUP1 DUP3 ADD MLOAD DUP2 DUP5 ADD MSTORE PUSH1 0x20 DUP2 ADD SWAP1 POP PUSH2 0xDE7 JUMP JUMPDEST PUSH1 0x0 DUP5 DUP5 ADD MSTORE POP POP POP POP JUMP JUMPDEST PUSH1 0x0 PUSH1 0x1F NOT PUSH1 0x1F DUP4 ADD AND SWAP1 POP SWAP2 SWAP1 POP JUMP JUMPDEST PUSH1 0x0 PUSH2 0xE2A DUP3 PUSH2 0xDC8 JUMP JUMPDEST PUSH2 0xE34 DUP2 DUP6 PUSH2 0xDD3 JUMP JUMPDEST SWAP4 POP PUSH2 0xE44 DUP2 DUP6 PUSH1 0x20 DUP7 ADD PUSH2 0xDE4 JUMP JUMPDEST PUSH2 0xE4D DUP2 PUSH2 0xE0E JUMP JUMPDEST DUP5 ADD SWAP2 POP POP SWAP3 SWAP2 POP POP JUMP JUMPDEST PUSH1 0x0 DUP2 ISZERO ISZERO SWAP1 POP SWAP2 SWAP1 POP JUMP JUMPDEST PUSH2 0xE6D DUP2 PUSH2 0xE58 JUMP JUMPDEST DUP3 MSTORE POP POP JUMP JUMPDEST PUSH1 0x0 PUSH2 0x160 DUP3 ADD SWAP1 POP PUSH2 0xE89 PUSH1 0x0 DUP4 ADD DUP15 PUSH2 0xD78 JUMP JUMPDEST PUSH2 0xE96 PUSH1 0x20 DUP4 ADD DUP14 PUSH2 0xDB9 JUMP JUMPDEST PUSH2 0xEA3 PUSH1 0x40 DUP4 ADD DUP13 PUSH2 0xDB9 JUMP JUMPDEST DUP2 DUP2 SUB PUSH1 0x60 DUP4 ADD MSTORE PUSH2 0xEB5 DUP2 DUP12 PUSH2 0xE1F JUMP JUMPDEST SWAP1 POP PUSH2 0xEC4 PUSH1 0x80 DUP4 ADD DUP11 PUSH2 0xD78 JUMP JUMPDEST PUSH2 0xED1 PUSH1 0xA0 DUP4 ADD DUP10 PUSH2 0xD78 JUMP JUMPDEST PUSH2 0xEDE PUSH1 0xC0 DUP4 ADD DUP9 PUSH2 0xE64 JUMP JUMPDEST PUSH2 0xEEB PUSH1 0xE0 DUP4 ADD DUP8 PUSH2 0xE64 JUMP JUMPDEST PUSH2 0xEF9 PUSH2 0x100 DUP4 ADD DUP7 PUSH2 0xE64 JUMP JUMPDEST PUSH2 0xF07 PUSH2 0x120 DUP4 ADD DUP6 PUSH2 0xE64 JUMP JUMPDEST PUSH2 0xF15 PUSH2 0x140 DUP4 ADD DUP5 PUSH2 0xE64 JUMP JUMPDEST SWAP13 SWAP12 POP POP POP POP POP POP POP POP POP POP POP POP JUMP JUMPDEST PUSH1 0x0 PUSH1 0x20 DUP3 ADD SWAP1 POP PUSH2 0xF3A PUSH1 0x0 DUP4 ADD DUP5 PUSH2 0xD78 JUMP JUMPDEST SWAP3 SWAP2 POP POP JUMP JUMPDEST PUSH2 0xF49 DUP2 PUSH2 0xDA7 JUMP JUMPDEST DUP2 EQ PUSH2 0xF54 JUMPI PUSH1 0x0 DUP1 REVERT JUMPDEST POP JUMP JUMPDEST PUSH1 0x0 DUP2 CALLDATALOAD SWAP1 POP PUSH2 0xF66 DUP2 PUSH2 0xF40 JUMP JUMPDEST SWAP3 SWAP2 POP POP JUMP JUMPDEST PUSH1 0x0 DUP1 PUSH1 0x40 DUP4 DUP6 SUB SLT ISZERO PUSH2 0xF83 JUMPI PUSH2 0xF82 PUSH2 0xD0B JUMP JUMPDEST JUMPDEST PUSH1 0x0 PUSH2 0xF91 DUP6 DUP3 DUP7 ADD PUSH2 0xD36 JUMP JUMPDEST SWAP3 POP POP PUSH1 0x20 PUSH2 0xFA2 DUP6 DUP3 DUP7 ADD PUSH2 0xF57 JUMP JUMPDEST SWAP2 POP POP SWAP3 POP SWAP3 SWAP1 POP JUMP JUMPDEST PUSH1 0x0 DUP1 REVERT JUMPDEST PUSH1 0x0 DUP1 REVERT JUMPDEST PUSH32 0x4E487B7100000000000000000000000000000000000000000000000000000000 PUSH1 0x0 MSTORE PUSH1 0x41 PUSH1 0x4 MSTORE PUSH1 0x24 PUSH1 0x0 REVERT JUMPDEST PUSH2 0xFEE DUP3 PUSH2 0xE0E JUMP JUMPDEST DUP2 ADD DUP2 DUP2 LT PUSH8 0xFFFFFFFFFFFFFFFF DUP3 GT OR ISZERO PUSH2 0x100D JUMPI PUSH2 0x100C PUSH2 0xFB6 JUMP JUMPDEST JUMPDEST DUP1 PUSH1 0x40 MSTORE POP POP POP JUMP JUMPDEST PUSH1 0x0 PUSH2 0x1020 PUSH2 0xD01 JUMP JUMPDEST SWAP1 POP PUSH2 0x102C DUP3 DUP3 PUSH2 0xFE5 JUMP JUMPDEST SWAP2 SWAP1 POP JUMP JUMPDEST PUSH1 0x0 PUSH8 0xFFFFFFFFFFFFFFFF DUP3 GT ISZERO PUSH2 0x104C JUMPI PUSH2 0x104B PUSH2 0xFB6 JUMP JUMPDEST JUMPDEST PUSH2 0x1055 DUP3 PUSH2 0xE0E JUMP JUMPDEST SWAP1 POP PUSH1 0x20 DUP2 ADD SWAP1 POP SWAP2 SWAP1 POP JUMP JUMPDEST DUP3 DUP2 DUP4 CALLDATACOPY PUSH1 0x0 DUP4 DUP4 ADD MSTORE POP POP POP JUMP JUMPDEST PUSH1 0x0 PUSH2 0x1084 PUSH2 0x107F DUP5 PUSH2 0x1031 JUMP JUMPDEST PUSH2 0x1016 JUMP JUMPDEST SWAP1 POP DUP3 DUP2 MSTORE PUSH1 0x20 DUP2 ADD DUP5 DUP5 DUP5 ADD GT ISZERO PUSH2 0x10A0 JUMPI PUSH2 0x109F PUSH2 0xFB1 JUMP JUMPDEST JUMPDEST PUSH2 0x10AB DUP5 DUP3 DUP6 PUSH2 0x1062 JUMP JUMPDEST POP SWAP4 SWAP3 POP POP POP JUMP JUMPDEST PUSH1 0x0 DUP3 PUSH1 0x1F DUP4 ADD SLT PUSH2 0x10C8 JUMPI PUSH2 0x10C7 PUSH2 0xFAC JUMP JUMPDEST JUMPDEST DUP2 CALLDATALOAD PUSH2 0x10D8 DUP5 DUP3 PUSH1 0x20 DUP7 ADD PUSH2 0x1071 JUMP JUMPDEST SWAP2 POP POP SWAP3 SWAP2 POP POP JUMP JUMPDEST PUSH1 0x0 DUP1 PUSH1 0x0 PUSH1 0x60 DUP5 DUP7 SUB SLT ISZERO PUSH2 0x10FA JUMPI PUSH2 0x10F9 PUSH2 0xD0B JUMP JUMPDEST JUMPDEST PUSH1 0x0 DUP5 ADD CALLDATALOAD PUSH8 0xFFFFFFFFFFFFFFFF DUP2 GT ISZERO PUSH2 0x1118 JUMPI PUSH2 0x1117 PUSH2 0xD10 JUMP JUMPDEST JUMPDEST PUSH2 0x1124 DUP7 DUP3 DUP8 ADD PUSH2 0x10B3 JUMP JUMPDEST SWAP4 POP POP PUSH1 0x20 PUSH2 0x1135 DUP7 DUP3 DUP8 ADD PUSH2 0xD36 JUMP JUMPDEST SWAP3 POP POP PUSH1 0x40 PUSH2 0x1146 DUP7 DUP3 DUP8 ADD PUSH2 0xD36 JUMP JUMPDEST SWAP2 POP POP SWAP3 POP SWAP3 POP SWAP3 JUMP JUMPDEST PUSH32 0x4E487B7100000000000000000000000000000000000000000000000000000000 PUSH1 0x0 MSTORE PUSH1 0x22 PUSH1 0x4 MSTORE PUSH1 0x24 PUSH1 0x0 REVERT JUMPDEST PUSH1 0x0 PUSH1 0x2 DUP3 DIV SWAP1 POP PUSH1 0x1 DUP3 AND DUP1 PUSH2 0x1197 JUMPI PUSH1 0x7F DUP3 AND SWAP2 POP JUMPDEST PUSH1 0x20 DUP3 LT DUP2 SUB PUSH2 0x11AA JUMPI PUSH2 0x11A9 PUSH2 0x1150 JUMP JUMPDEST JUMPDEST POP SWAP2 SWAP1 POP JUMP JUMPDEST PUSH32 0x4F6E6C7920636C69656E742063616E20696E6974696174652074726561747900 PUSH1 0x0 DUP3 ADD MSTORE POP JUMP JUMPDEST PUSH1 0x0 PUSH2 0x11E6 PUSH1 0x1F DUP4 PUSH2 0xDD3 JUMP JUMPDEST SWAP2 POP PUSH2 0x11F1 DUP3 PUSH2 0x11B0 JUMP JUMPDEST PUSH1 0x20 DUP3 ADD SWAP1 POP SWAP2 SWAP1 POP JUMP JUMPDEST PUSH1 0x0 PUSH1 0x20 DUP3 ADD SWAP1 POP DUP2 DUP2 SUB PUSH1 0x0 DUP4 ADD MSTORE PUSH2 0x1215 DUP2 PUSH2 0x11D9 JUMP JUMPDEST SWAP1 POP SWAP2 SWAP1 POP JUMP JUMPDEST PUSH32 0x54726561747920616C7265616479207369676E65640000000000000000000000 PUSH1 0x0 DUP3 ADD MSTORE POP JUMP JUMPDEST PUSH1 0x0 PUSH2 0x1252 PUSH1 0x15 DUP4 PUSH2 0xDD3 JUMP JUMPDEST SWAP2 POP PUSH2 0x125D DUP3 PUSH2 0x121C JUMP JUMPDEST PUSH1 0x20 DUP3 ADD SWAP1 POP SWAP2 SWAP1 POP JUMP JUMPDEST PUSH1 0x0 PUSH1 0x20 DUP3 ADD SWAP1 POP DUP2 DUP2 SUB PUSH1 0x0 DUP4 ADD MSTORE PUSH2 0x1281 DUP2 PUSH2 0x1245 JUMP JUMPDEST SWAP1 POP SWAP2 SWAP1 POP JUMP JUMPDEST PUSH32 0x4F6E6C7920667265656C616E6365722063616E207375626D6974000000000000 PUSH1 0x0 DUP3 ADD MSTORE POP JUMP JUMPDEST PUSH1 0x0 PUSH2 0x12BE PUSH1 0x1A DUP4 PUSH2 0xDD3 JUMP JUMPDEST SWAP2 POP PUSH2 0x12C9 DUP3 PUSH2 0x1288 JUMP JUMPDEST PUSH1 0x20 DUP3 ADD SWAP1 POP SWAP2 SWAP1 POP JUMP JUMPDEST PUSH1 0x0 PUSH1 0x20 DUP3 ADD SWAP1 POP DUP2 DUP2 SUB PUSH1 0x0 DUP4 ADD MSTORE PUSH2 0x12ED DUP2 PUSH2 0x12B1 JUMP JUMPDEST SWAP1 POP SWAP2 SWAP1 POP JUMP JUMPDEST PUSH32 0x457363726F77206E6F74206465706F7369746564000000000000000000000000 PUSH1 0x0 DUP3 ADD MSTORE POP JUMP JUMPDEST PUSH1 0x0 PUSH2 0x132A PUSH1 0x14 DUP4 PUSH2 0xDD3 JUMP JUMPDEST SWAP2 POP PUSH2 0x1335 DUP3 PUSH2 0x12F4 JUMP JUMPDEST PUSH1 0x20 DUP3 ADD SWAP1 POP SWAP2 SWAP1 POP JUMP JUMPDEST PUSH1 0x0 PUSH1 0x20 DUP3 ADD SWAP1 POP DUP2 DUP2 SUB PUSH1 0x0 DUP4 ADD MSTORE PUSH2 0x1359 DUP2 PUSH2 0x131D JUMP JUMPDEST SWAP1 POP SWAP2 SWAP1 POP JUMP JUMPDEST PUSH32 0x4D696C6573746F6E6520616C7265616479207375626D69747465640000000000 PUSH1 0x0 DUP3 ADD MSTORE POP JUMP JUMPDEST PUSH1 0x0 PUSH2 0x1396 PUSH1 0x1B DUP4 PUSH2 0xDD3 JUMP JUMPDEST SWAP2 POP PUSH2 0x13A1 DUP3 PUSH2 0x1360 JUMP JUMPDEST PUSH1 0x20 DUP3 ADD SWAP1 POP SWAP2 SWAP1 POP JUMP JUMPDEST PUSH1 0x0 PUSH1 0x20 DUP3 ADD SWAP1 POP DUP2 DUP2 SUB PUSH1 0x0 DUP4 ADD MSTORE PUSH2 0x13C5 DUP2 PUSH2 0x1389 JUMP JUMPDEST SWAP1 POP SWAP2 SWAP1 POP JUMP JUMPDEST PUSH32 0x4F6E6C7920636C69656E742063616E2072656C65617365000000000000000000 PUSH1 0x0 DUP3 ADD MSTORE POP JUMP JUMPDEST PUSH1 0x0 PUSH2 0x1402 PUSH1 0x17 DUP4 PUSH2 0xDD3 JUMP JUMPDEST SWAP2 POP PUSH2 0x140D DUP3 PUSH2 0x13CC JUMP JUMPDEST PUSH1 0x20 DUP3 ADD SWAP1 POP SWAP2 SWAP1 POP JUMP JUMPDEST PUSH1 0x0 PUSH1 0x20 DUP3 ADD SWAP1 POP DUP2 DUP2 SUB PUSH1 0x0 DUP4 ADD MSTORE PUSH2 0x1431 DUP2 PUSH2 0x13F5 JUMP JUMPDEST SWAP1 POP SWAP2 SWAP1 POP JUMP JUMPDEST PUSH32 0x4D696C6573746F6E65206E6F74207375626D6974746564000000000000000000 PUSH1 0x0 DUP3 ADD MSTORE POP JUMP JUMPDEST PUSH1 0x0 PUSH2 0x146E PUSH1 0x17 DUP4 PUSH2 0xDD3 JUMP JUMPDEST SWAP2 POP PUSH2 0x1479 DUP3 PUSH2 0x1438 JUMP JUMPDEST PUSH1 0x20 DUP3 ADD SWAP1 POP SWAP2 SWAP1 POP JUMP JUMPDEST PUSH1 0x0 PUSH1 0x20 DUP3 ADD SWAP1 POP DUP2 DUP2 SUB PUSH1 0x0 DUP4 ADD MSTORE PUSH2 0x149D DUP2 PUSH2 0x1461 JUMP JUMPDEST SWAP1 POP SWAP2 SWAP1 POP JUMP JUMPDEST PUSH32 0x5061796D656E7420616C72656164792072656C65617365640000000000000000 PUSH1 0x0 DUP3 ADD MSTORE POP JUMP JUMPDEST PUSH1 0x0 PUSH2 0x14DA PUSH1 0x18 DUP4 PUSH2 0xDD3 JUMP JUMPDEST SWAP2 POP PUSH2 0x14E5 DUP3 PUSH2 0x14A4 JUMP JUMPDEST PUSH1 0x20 DUP3 ADD SWAP1 POP SWAP2 SWAP1 POP JUMP JUMPDEST PUSH1 0x0 PUSH1 0x20 DUP3 ADD SWAP1 POP DUP2 DUP2 SUB PUSH1 0x0 DUP4 ADD MSTORE PUSH2 0x1509 DUP2 PUSH2 0x14CD JUMP JUMPDEST SWAP1 POP SWAP2 SWAP1 POP JUMP JUMPDEST PUSH32 0x4F6E6C7920636C69656E742063616E206465706F736974000000000000000000 PUSH1 0x0 DUP3 ADD MSTORE POP JUMP JUMPDEST PUSH1 0x0 PUSH2 0x1546 PUSH1 0x17 DUP4 PUSH2 0xDD3 JUMP JUMPDEST SWAP2 POP PUSH2 0x1551 DUP3 PUSH2 0x1510 JUMP JUMPDEST PUSH1 0x20 DUP3 ADD SWAP1 POP SWAP2 SWAP1 POP JUMP JUMPDEST PUSH1 0x0 PUSH1 0x20 DUP3 ADD SWAP1 POP DUP2 DUP2 SUB PUSH1 0x0 DUP4 ADD MSTORE PUSH2 0x1575 DUP2 PUSH2 0x1539 JUMP JUMPDEST SWAP1 POP SWAP2 SWAP1 POP JUMP JUMPDEST PUSH32 0x547265617479206D757374206265207369676E65642066697273740000000000 PUSH1 0x0 DUP3 ADD MSTORE POP JUMP JUMPDEST PUSH1 0x0 PUSH2 0x15B2 PUSH1 0x1B DUP4 PUSH2 0xDD3 JUMP JUMPDEST SWAP2 POP PUSH2 0x15BD DUP3 PUSH2 0x157C JUMP JUMPDEST PUSH1 0x20 DUP3 ADD SWAP1 POP SWAP2 SWAP1 POP JUMP JUMPDEST PUSH1 0x0 PUSH1 0x20 DUP3 ADD SWAP1 POP DUP2 DUP2 SUB PUSH1 0x0 DUP4 ADD MSTORE PUSH2 0x15E1 DUP2 PUSH2 0x15A5 JUMP JUMPDEST SWAP1 POP SWAP2 SWAP1 POP JUMP JUMPDEST PUSH32 0x457363726F7720616C7265616479206465706F73697465640000000000000000 PUSH1 0x0 DUP3 ADD MSTORE POP JUMP JUMPDEST PUSH1 0x0 PUSH2 0x161E PUSH1 0x18 DUP4 PUSH2 0xDD3 JUMP JUMPDEST SWAP2 POP PUSH2 0x1629 DUP3 PUSH2 0x15E8 JUMP JUMPDEST PUSH1 0x20 DUP3 ADD SWAP1 POP SWAP2 SWAP1 POP JUMP JUMPDEST PUSH1 0x0 PUSH1 0x20 DUP3 ADD SWAP1 POP DUP2 DUP2 SUB PUSH1 0x0 DUP4 ADD MSTORE PUSH2 0x164D DUP2 PUSH2 0x1611 JUMP JUMPDEST SWAP1 POP SWAP2 SWAP1 POP JUMP JUMPDEST PUSH32 0x496E636F7272656374206465706F73697420616D6F756E740000000000000000 PUSH1 0x0 DUP3 ADD MSTORE POP JUMP JUMPDEST PUSH1 0x0 PUSH2 0x168A PUSH1 0x18 DUP4 PUSH2 0xDD3 JUMP JUMPDEST SWAP2 POP PUSH2 0x1695 DUP3 PUSH2 0x1654 JUMP JUMPDEST PUSH1 0x20 DUP3 ADD SWAP1 POP SWAP2 SWAP1 POP JUMP JUMPDEST PUSH1 0x0 PUSH1 0x20 DUP3 ADD SWAP1 POP DUP2 DUP2 SUB PUSH1 0x0 DUP4 ADD MSTORE PUSH2 0x16B9 DUP2 PUSH2 0x167D JUMP JUMPDEST SWAP1 POP SWAP2 SWAP1 POP JUMP JUMPDEST PUSH32 0x4E487B7100000000000000000000000000000000000000000000000000000000 PUSH1 0x0 MSTORE PUSH1 0x11 PUSH1 0x4 MSTORE PUSH1 0x24 PUSH1 0x0 REVERT JUMPDEST PUSH1 0x0 PUSH2 0x16FA DUP3 PUSH2 0xD15 JUMP JUMPDEST SWAP2 POP PUSH32 0xFFFFFFFFFFFFFFFFFFFFFFFFFFFFFFFFFFFFFFFFFFFFFFFFFFFFFFFFFFFFFFFF DUP3 SUB PUSH2 0x172C JUMPI PUSH2 0x172B PUSH2 0x16C0 JUMP JUMPDEST JUMPDEST PUSH1 0x1 DUP3 ADD SWAP1 POP SWAP2 SWAP1 POP JUMP JUMPDEST PUSH1 0x0 DUP2 SWAP1 POP DUP2 PUSH1 0x0 MSTORE PUSH1 0x20 PUSH1 0x0 KECCAK256 SWAP1 POP SWAP2 SWAP1 POP JUMP JUMPDEST PUSH1 0x0 PUSH1 0x20 PUSH1 0x1F DUP4 ADD DIV SWAP1 POP SWAP2 SWAP1 POP JUMP JUMPDEST PUSH1 0x0 DUP3 DUP3 SHL SWAP1 POP SWAP3 SWAP2 POP POP JUMP JUMPDEST PUSH1 0x0 PUSH1 0x8 DUP4 MUL PUSH2 0x1799 PUSH32 0xFFFFFFFFFFFFFFFFFFFFFFFFFFFFFFFFFFFFFFFFFFFFFFFFFFFFFFFFFFFFFFFF DUP3 PUSH2 0x175C JUMP JUMPDEST PUSH2 0x17A3 DUP7 DUP4 PUSH2 0x175C JUMP JUMPDEST SWAP6 POP DUP1 NOT DUP5 AND SWAP4 POP DUP1 DUP7 AND DUP5 OR SWAP3 POP POP POP SWAP4 SWAP3 POP POP POP JUMP JUMPDEST PUSH1 0x0 DUP2 SWAP1 POP SWAP2 SWAP1 POP JUMP JUMPDEST PUSH1 0x0 PUSH2 0x17E0 PUSH2 0x17DB PUSH2 0x17D6 DUP5 PUSH2 0xD15 JUMP JUMPDEST PUSH2 0x17BB JUMP JUMPDEST PUSH2 0xD15 JUMP JUMPDEST SWAP1 POP SWAP2 SWAP1 POP JUMP JUMPDEST PUSH1 0x0 DUP2 SWAP1 POP SWAP2 SWAP1 POP JUMP JUMPDEST PUSH2 0x17FA DUP4 PUSH2 0x17C5 JUMP JUMPDEST PUSH2 0x180E PUSH2 0x1806 DUP3 PUSH2 0x17E7 JUMP JUMPDEST DUP5 DUP5 SLOAD PUSH2 0x1769 JUMP JUMPDEST DUP3 SSTORE POP POP POP POP JUMP JUMPDEST PUSH1 0x0 SWAP1 JUMP JUMPDEST PUSH2 0x1823 PUSH2 0x1816 JUMP JUMPDEST PUSH2 0x182E DUP2 DUP5 DUP5 PUSH2 0x17F1 JUMP JUMPDEST POP POP POP JUMP JUMPDEST JUMPDEST DUP2 DUP2 LT ISZERO PUSH2 0x1852 JUMPI PUSH2 0x1847 PUSH1 0x0 DUP3 PUSH2 0x181B JUMP JUMPDEST PUSH1 0x1 DUP2 ADD SWAP1 POP PUSH2 0x1834 JUMP JUMPDEST POP POP JUMP JUMPDEST PUSH1 0x1F DUP3 GT ISZERO PUSH2 0x1897 JUMPI PUSH2 0x1868 DUP2 PUSH2 0x1737 JUMP JUMPDEST PUSH2 0x1871 DUP5 PUSH2 0x174C JUMP JUMPDEST DUP2 ADD PUSH1 0x20 DUP6 LT ISZERO PUSH2 0x1880 JUMPI DUP2 SWAP1 POP JUMPDEST PUSH2 0x1894 PUSH2 0x188C DUP6 PUSH2 0x174C JUMP JUMPDEST DUP4 ADD DUP3 PUSH2 0x1833 JUMP JUMPDEST POP POP JUMPDEST POP POP POP JUMP JUMPDEST PUSH1 0x0 DUP3 DUP3 SHR SWAP1 POP SWAP3 SWAP2 POP POP JUMP JUMPDEST PUSH1 0x0 PUSH2 0x18BA PUSH1 0x0 NOT DUP5 PUSH1 0x8 MUL PUSH2 0x189C JUMP JUMPDEST NOT DUP1 DUP4 AND SWAP2 POP POP SWAP3 SWAP2 POP POP JUMP JUMPDEST PUSH1 0x0 PUSH2 0x18D3 DUP4 DUP4 PUSH2 0x18A9 JUMP JUMPDEST SWAP2 POP DUP3 PUSH1 0x2 MUL DUP3 OR SWAP1 POP SWAP3 SWAP2 POP POP JUMP JUMPDEST PUSH2 0x18EC DUP3 PUSH2 0xDC8 JUMP JUMPDEST PUSH8 0xFFFFFFFFFFFFFFFF DUP2 GT ISZERO PUSH2 0x1905 JUMPI PUSH2 0x1904 PUSH2 0xFB6 JUMP JUMPDEST JUMPDEST PUSH2 0x190F DUP3 SLOAD PUSH2 0x117F JUMP JUMPDEST PUSH2 0x191A DUP3 DUP3 DUP6 PUSH2 0x1856 JUMP JUMPDEST PUSH1 0x0 PUSH1 0x20 SWAP1 POP PUSH1 0x1F DUP4 GT PUSH1 0x1 DUP2 EQ PUSH2 0x194D JUMPI PUSH1 0x0 DUP5 ISZERO PUSH2 0x193B JUMPI DUP3 DUP8 ADD MLOAD SWAP1 POP JUMPDEST PUSH2 0x1945 DUP6 DUP3 PUSH2 0x18C7 JUMP JUMPDEST DUP7 SSTORE POP PUSH2 0x19AD JUMP JUMPDEST PUSH1 0x1F NOT DUP5 AND PUSH2 0x195B DUP7 PUSH2 0x1737 JUMP JUMPDEST PUSH1 0x0 JUMPDEST DUP3 DUP2 LT ISZERO PUSH2 0x1983 JUMPI DUP5 DUP10 ADD MLOAD DUP3 SSTORE PUSH1 0x1 DUP3 ADD SWAP2 POP PUSH1 0x20 DUP6 ADD SWAP5 POP PUSH1 0x20 DUP2 ADD SWAP1 POP PUSH2 0x195E JUMP JUMPDEST DUP7 DUP4 LT ISZERO PUSH2 0x19A0 JUMPI DUP5 DUP10 ADD MLOAD PUSH2 0x199C PUSH1 0x1F DUP10 AND DUP3 PUSH2 0x18A9 JUMP JUMPDEST DUP4 SSTORE POP JUMPDEST PUSH1 0x1 PUSH1 0x2 DUP9 MUL ADD DUP9 SSTORE POP POP POP JUMPDEST POP POP POP POP POP POP JUMP JUMPDEST PUSH1 0x0 PUSH1 0x40 DUP3 ADD SWAP1 POP DUP2 DUP2 SUB PUSH1 0x0 DUP4 ADD MSTORE PUSH2 0x19CF DUP2 DUP6 PUSH2 0xE1F JUMP JUMPDEST SWAP1 POP PUSH2 0x19DE PUSH1 0x20 DUP4 ADD DUP5 PUSH2 0xD78 JUMP JUMPDEST SWAP4 SWAP3 POP POP POP JUMP INVALID LOG2 PUSH5 0x6970667358 0x22 SLT KECCAK256 PUSH24 0xEEBD9513005A9B97F7D5E628C886B084DE25138DBFAD84DC CODESIZE KECCAK256 EQ CALLDATACOPY 0xEB 0xC6 0xD3 PUSH5 0x736F6C6343 STOP ADDMOD XOR STOP CALLER "},"methodIdentifiers":{"createProject(string,uint256,uint256)":"f3a6ac5f","depositEscrow(uint256)":"cb991efe","projectCount()":"36fbad26","projects(uint256)":"107046bd","releasePayment(uint256)":"88685cd9","signTreaty(uint256,address)":"71b01ac3","submitMilestone(uint256)":"7d64b00b"}}}}}